{
  "contractName": "SolnSquareVerifier",
  "abi": [
    {
      "inputs": [
        {
          "internalType": "address",
          "name": "verifierAddress",
          "type": "address"
        }
      ],
      "payable": false,
      "stateMutability": "nonpayable",
      "type": "constructor"
    },
    {
      "anonymous": false,
      "inputs": [
        {
          "indexed": true,
          "internalType": "address",
          "name": "owner",
          "type": "address"
        },
        {
          "indexed": true,
          "internalType": "address",
          "name": "approved",
          "type": "address"
        },
        {
          "indexed": true,
          "internalType": "uint256",
          "name": "tokenId",
          "type": "uint256"
        }
      ],
      "name": "Approval",
      "type": "event"
    },
    {
      "anonymous": false,
      "inputs": [
        {
          "indexed": true,
          "internalType": "address",
          "name": "owner",
          "type": "address"
        },
        {
          "indexed": true,
          "internalType": "address",
          "name": "operator",
          "type": "address"
        },
        {
          "indexed": false,
          "internalType": "bool",
          "name": "approved",
          "type": "bool"
        }
      ],
      "name": "ApprovalForAll",
      "type": "event"
    },
    {
      "anonymous": false,
      "inputs": [
        {
          "indexed": false,
          "internalType": "address",
          "name": "newOwner",
          "type": "address"
        }
      ],
      "name": "OwnerChanged",
      "type": "event"
    },
    {
      "anonymous": false,
      "inputs": [
        {
          "indexed": false,
          "internalType": "address",
          "name": "actor",
          "type": "address"
        }
      ],
      "name": "Paused",
      "type": "event"
    },
    {
      "anonymous": false,
      "inputs": [
        {
          "indexed": false,
          "internalType": "address",
          "name": "solutionAddress",
          "type": "address"
        }
      ],
      "name": "SolutionAdded",
      "type": "event"
    },
    {
      "anonymous": false,
      "inputs": [
        {
          "indexed": true,
          "internalType": "address",
          "name": "from",
          "type": "address"
        },
        {
          "indexed": true,
          "internalType": "address",
          "name": "to",
          "type": "address"
        },
        {
          "indexed": true,
          "internalType": "uint256",
          "name": "tokenId",
          "type": "uint256"
        }
      ],
      "name": "Transfer",
      "type": "event"
    },
    {
      "anonymous": false,
      "inputs": [
        {
          "indexed": false,
          "internalType": "address",
          "name": "actor",
          "type": "address"
        }
      ],
      "name": "Unpaused",
      "type": "event"
    },
    {
      "constant": true,
      "inputs": [
        {
          "internalType": "bytes32",
          "name": "_myid",
          "type": "bytes32"
        },
        {
          "internalType": "string",
          "name": "_result",
          "type": "string"
        }
      ],
      "name": "__callback",
      "outputs": [],
      "payable": false,
      "stateMutability": "pure",
      "type": "function"
    },
    {
      "constant": true,
      "inputs": [
        {
          "internalType": "bytes32",
          "name": "_myid",
          "type": "bytes32"
        },
        {
          "internalType": "string",
          "name": "_result",
          "type": "string"
        },
        {
          "internalType": "bytes",
          "name": "_proof",
          "type": "bytes"
        }
      ],
      "name": "__callback",
      "outputs": [],
      "payable": false,
      "stateMutability": "pure",
      "type": "function"
    },
    {
      "constant": false,
      "inputs": [
        {
          "internalType": "address",
          "name": "to",
          "type": "address"
        },
        {
          "internalType": "uint256",
          "name": "tokenId",
          "type": "uint256"
        }
      ],
      "name": "approve",
      "outputs": [],
      "payable": false,
      "stateMutability": "nonpayable",
      "type": "function"
    },
    {
      "constant": true,
      "inputs": [
        {
          "internalType": "address",
          "name": "owner",
          "type": "address"
        }
      ],
      "name": "balanceOf",
      "outputs": [
        {
          "internalType": "uint256",
          "name": "",
          "type": "uint256"
        }
      ],
      "payable": false,
      "stateMutability": "view",
      "type": "function"
    },
    {
      "constant": true,
      "inputs": [],
      "name": "baseTokenURI",
      "outputs": [
        {
          "internalType": "string",
          "name": "",
          "type": "string"
        }
      ],
      "payable": false,
      "stateMutability": "view",
      "type": "function"
    },
    {
      "constant": true,
      "inputs": [
        {
          "internalType": "uint256",
          "name": "tokenId",
          "type": "uint256"
        }
      ],
      "name": "getApproved",
      "outputs": [
        {
          "internalType": "address",
          "name": "",
          "type": "address"
        }
      ],
      "payable": false,
      "stateMutability": "view",
      "type": "function"
    },
    {
      "constant": true,
      "inputs": [
        {
          "internalType": "address",
          "name": "owner",
          "type": "address"
        },
        {
          "internalType": "address",
          "name": "operator",
          "type": "address"
        }
      ],
      "name": "isApprovedForAll",
      "outputs": [
        {
          "internalType": "bool",
          "name": "",
          "type": "bool"
        }
      ],
      "payable": false,
      "stateMutability": "view",
      "type": "function"
    },
    {
      "constant": false,
      "inputs": [
        {
          "internalType": "address",
          "name": "to",
          "type": "address"
        },
        {
          "internalType": "uint256",
          "name": "tokenId",
          "type": "uint256"
        }
      ],
      "name": "mint",
      "outputs": [
        {
          "internalType": "bool",
          "name": "",
          "type": "bool"
        }
      ],
      "payable": false,
      "stateMutability": "nonpayable",
      "type": "function"
    },
    {
      "constant": true,
      "inputs": [],
      "name": "name",
      "outputs": [
        {
          "internalType": "string",
          "name": "",
          "type": "string"
        }
      ],
      "payable": false,
      "stateMutability": "view",
      "type": "function"
    },
    {
      "constant": true,
      "inputs": [],
      "name": "owner",
      "outputs": [
        {
          "internalType": "address",
          "name": "",
          "type": "address"
        }
      ],
      "payable": false,
      "stateMutability": "view",
      "type": "function"
    },
    {
      "constant": true,
      "inputs": [
        {
          "internalType": "uint256",
          "name": "tokenId",
          "type": "uint256"
        }
      ],
      "name": "ownerOf",
      "outputs": [
        {
          "internalType": "address",
          "name": "",
          "type": "address"
        }
      ],
      "payable": false,
      "stateMutability": "view",
      "type": "function"
    },
    {
      "constant": false,
      "inputs": [
        {
          "internalType": "address",
          "name": "from",
          "type": "address"
        },
        {
          "internalType": "address",
          "name": "to",
          "type": "address"
        },
        {
          "internalType": "uint256",
          "name": "tokenId",
          "type": "uint256"
        }
      ],
      "name": "safeTransferFrom",
      "outputs": [],
      "payable": false,
      "stateMutability": "nonpayable",
      "type": "function"
    },
    {
      "constant": false,
      "inputs": [
        {
          "internalType": "address",
          "name": "from",
          "type": "address"
        },
        {
          "internalType": "address",
          "name": "to",
          "type": "address"
        },
        {
          "internalType": "uint256",
          "name": "tokenId",
          "type": "uint256"
        },
        {
          "internalType": "bytes",
          "name": "_data",
          "type": "bytes"
        }
      ],
      "name": "safeTransferFrom",
      "outputs": [],
      "payable": false,
      "stateMutability": "nonpayable",
      "type": "function"
    },
    {
      "constant": false,
      "inputs": [
        {
          "internalType": "address",
          "name": "to",
          "type": "address"
        },
        {
          "internalType": "bool",
          "name": "approved",
          "type": "bool"
        }
      ],
      "name": "setApprovalForAll",
      "outputs": [],
      "payable": false,
      "stateMutability": "nonpayable",
      "type": "function"
    },
    {
      "constant": false,
      "inputs": [
        {
          "internalType": "bool",
          "name": "pause",
          "type": "bool"
        }
      ],
      "name": "setPaused",
      "outputs": [],
      "payable": false,
      "stateMutability": "nonpayable",
      "type": "function"
    },
    {
      "constant": true,
      "inputs": [
        {
          "internalType": "bytes4",
          "name": "interfaceId",
          "type": "bytes4"
        }
      ],
      "name": "supportsInterface",
      "outputs": [
        {
          "internalType": "bool",
          "name": "",
          "type": "bool"
        }
      ],
      "payable": false,
      "stateMutability": "view",
      "type": "function"
    },
    {
      "constant": true,
      "inputs": [],
      "name": "symbol",
      "outputs": [
        {
          "internalType": "string",
          "name": "",
          "type": "string"
        }
      ],
      "payable": false,
      "stateMutability": "view",
      "type": "function"
    },
    {
      "constant": true,
      "inputs": [
        {
          "internalType": "uint256",
          "name": "index",
          "type": "uint256"
        }
      ],
      "name": "tokenByIndex",
      "outputs": [
        {
          "internalType": "uint256",
          "name": "",
          "type": "uint256"
        }
      ],
      "payable": false,
      "stateMutability": "view",
      "type": "function"
    },
    {
      "constant": true,
      "inputs": [
        {
          "internalType": "address",
          "name": "owner",
          "type": "address"
        },
        {
          "internalType": "uint256",
          "name": "index",
          "type": "uint256"
        }
      ],
      "name": "tokenOfOwnerByIndex",
      "outputs": [
        {
          "internalType": "uint256",
          "name": "",
          "type": "uint256"
        }
      ],
      "payable": false,
      "stateMutability": "view",
      "type": "function"
    },
    {
      "constant": true,
      "inputs": [
        {
          "internalType": "uint256",
          "name": "tokenId",
          "type": "uint256"
        }
      ],
      "name": "tokenURI",
      "outputs": [
        {
          "internalType": "string",
          "name": "",
          "type": "string"
        }
      ],
      "payable": false,
      "stateMutability": "view",
      "type": "function"
    },
    {
      "constant": true,
      "inputs": [],
      "name": "totalSupply",
      "outputs": [
        {
          "internalType": "uint256",
          "name": "",
          "type": "uint256"
        }
      ],
      "payable": false,
      "stateMutability": "view",
      "type": "function"
    },
    {
      "constant": false,
      "inputs": [
        {
          "internalType": "address",
          "name": "from",
          "type": "address"
        },
        {
          "internalType": "address",
          "name": "to",
          "type": "address"
        },
        {
          "internalType": "uint256",
          "name": "tokenId",
          "type": "uint256"
        }
      ],
      "name": "transferFrom",
      "outputs": [],
      "payable": false,
      "stateMutability": "nonpayable",
      "type": "function"
    },
    {
      "constant": false,
      "inputs": [
        {
          "internalType": "address",
          "name": "newOwner",
          "type": "address"
        }
      ],
      "name": "transferOwnership",
      "outputs": [],
      "payable": false,
      "stateMutability": "nonpayable",
      "type": "function"
    },
    {
      "constant": true,
      "inputs": [
        {
          "internalType": "uint256[2]",
          "name": "a",
          "type": "uint256[2]"
        },
        {
          "internalType": "uint256[2][2]",
          "name": "b",
          "type": "uint256[2][2]"
        },
        {
          "internalType": "uint256[2]",
          "name": "c",
          "type": "uint256[2]"
        },
        {
          "internalType": "uint256[2]",
          "name": "input",
          "type": "uint256[2]"
        }
      ],
      "name": "verifyTx",
      "outputs": [
        {
          "internalType": "bool",
          "name": "r",
          "type": "bool"
        }
      ],
      "payable": false,
      "stateMutability": "view",
      "type": "function"
    },
    {
      "constant": false,
      "inputs": [
        {
          "internalType": "uint256[2]",
          "name": "a",
          "type": "uint256[2]"
        },
        {
          "internalType": "uint256[2][2]",
          "name": "b",
          "type": "uint256[2][2]"
        },
        {
          "internalType": "uint256[2]",
          "name": "c",
          "type": "uint256[2]"
        },
        {
          "internalType": "uint256[2]",
          "name": "input",
          "type": "uint256[2]"
        },
        {
          "internalType": "address",
          "name": "solutionAddress",
          "type": "address"
        },
        {
          "internalType": "uint256",
          "name": "tokenId",
          "type": "uint256"
        }
      ],
      "name": "addSolution",
      "outputs": [
        {
          "internalType": "bool",
          "name": "",
          "type": "bool"
        }
      ],
      "payable": false,
      "stateMutability": "nonpayable",
      "type": "function"
    },
    {
      "constant": false,
      "inputs": [
        {
          "internalType": "address",
          "name": "solutionAddress",
          "type": "address"
        },
        {
          "internalType": "uint256",
          "name": "tokenId",
          "type": "uint256"
        }
      ],
      "name": "verifiedMint",
      "outputs": [
        {
          "internalType": "bool",
          "name": "",
          "type": "bool"
        }
      ],
      "payable": false,
      "stateMutability": "nonpayable",
      "type": "function"
    }
  ],
  "bytecode": "0x60806040523480156200001157600080fd5b5060405162004ce038038062004ce0833981810160405260208110156200003757600080fd5b81019080805190602001909291905050506040518060400160405280600e81526020017f43617073746f6e6520546f6b656e0000000000000000000000000000000000008152506040518060400160405280600381526020017f43535400000000000000000000000000000000000000000000000000000000008152506040518060600160405280603f815260200162004ca1603f9139336000806101000a81548173ffffffffffffffffffffffffffffffffffffffff021916908373ffffffffffffffffffffffffffffffffffffffff1602179055507fa2ea9883a321a3e97b8266c2b078bfeec6d50c711ed71f874a90d500ae2eaf3633604051808273ffffffffffffffffffffffffffffffffffffffff1673ffffffffffffffffffffffffffffffffffffffff16815260200191505060405180910390a1620001896301ffc9a760e01b620002e460201b60201c565b60008060146101000a81548160ff0219169083151502179055507f5db9ee0a495bf2e6ff9c91a7834c1ba4fdd244a5e8aa4e537bd38aeae4b073aa33604051808273ffffffffffffffffffffffffffffffffffffffff1673ffffffffffffffffffffffffffffffffffffffff16815260200191505060405180910390a16200021e6380ac58cd60e01b620002e460201b60201c565b6200023663780e9d6360e01b620002e460201b60201c565b82600f90805190602001906200024e92919062000384565b5081601090805190602001906200026792919062000384565b5080601190805190602001906200028092919062000384565b5062000299635b5e139f60e01b620002e460201b60201c565b50505080601360006101000a81548173ffffffffffffffffffffffffffffffffffffffff021916908373ffffffffffffffffffffffffffffffffffffffff1602179055505062000433565b63ffffffff60e01b817bffffffffffffffffffffffffffffffffffffffffffffffffffffffff191614156200031857600080fd5b6001806000837bffffffffffffffffffffffffffffffffffffffffffffffffffffffff19167bffffffffffffffffffffffffffffffffffffffffffffffffffffffff1916815260200190815260200160002060006101000a81548160ff02191690831515021790555050565b828054600181600116156101000203166002900490600052602060002090601f016020900481019282601f10620003c757805160ff1916838001178555620003f8565b82800160010185558215620003f8579182015b82811115620003f7578251825591602001919060010190620003da565b5b5090506200040791906200040b565b5090565b6200043091905b808211156200042c57600081600090555060010162000412565b5090565b90565b61485e80620004436000396000f3fe608060405234801561001057600080fd5b506004361061018e5760003560e01c806342842e0e116100de57806395d89b4111610097578063c87b56dd11610071578063c87b56dd14610df6578063d547cfb714610e9d578063e985e9c514610f20578063f2fde38b14610f9c5761018e565b806395d89b4114610c1e578063a22cb46514610ca1578063b88d4fde14610cf15761018e565b806342842e0e146108e55780634f6ccce714610953578063621e9ec0146109955780636352211e14610b0e57806370a0823114610b7c5780638da5cb5b14610bd45761018e565b806321517f011161014b5780632f745c59116101255780632f745c591461065b57806335e16cab146106bd57806338bbfa501461072357806340c10f191461087f5761018e565b806321517f011461038557806323b872dd1461052857806327dc297e146105965761018e565b806301ffc9a71461019357806306fdde03146101f8578063081812fc1461027b578063095ea7b3146102e957806316c38b3c1461033757806318160ddd14610367575b600080fd5b6101de600480360360208110156101a957600080fd5b8101908080357bffffffffffffffffffffffffffffffffffffffffffffffffffffffff19169060200190929190505050610fe0565b604051808215151515815260200191505060405180910390f35b610200611048565b6040518080602001828103825283818151815260200191508051906020019080838360005b83811015610240578082015181840152602081019050610225565b50505050905090810190601f16801561026d5780820380516001836020036101000a031916815260200191505b509250505060405180910390f35b6102a76004803603602081101561029157600080fd5b81019080803590602001909291905050506110ea565b604051808273ffffffffffffffffffffffffffffffffffffffff1673ffffffffffffffffffffffffffffffffffffffff16815260200191505060405180910390f35b610335600480360360408110156102ff57600080fd5b81019080803573ffffffffffffffffffffffffffffffffffffffff16906020019092919080359060200190929190505050611127565b005b6103656004803603602081101561034d57600080fd5b810190808035151590602001909291905050506112c4565b005b61036f611475565b6040518082815260200191505060405180910390f35b61050e600480360361018081101561039c57600080fd5b8101908080604001906002806020026040519081016040528092919082600260200280828437600081840152601f19601f82011690508083019250505050505091929192908060800190600280602002604051908101604052809291906000905b82821015610451578382604002016002806020026040519081016040528092919082600260200280828437600081840152601f19601f820116905080830192505050505050815260200190600101906103fd565b50505050919291929080604001906002806020026040519081016040528092919082600260200280828437600081840152601f19601f820116905080830192505050505050919291929080604001906002806020026040519081016040528092919082600260200280828437600081840152601f19601f8201169050808301925050505050509192919290803573ffffffffffffffffffffffffffffffffffffffff16906020019092919080359060200190929190505050611482565b604051808215151515815260200191505060405180910390f35b6105946004803603606081101561053e57600080fd5b81019080803573ffffffffffffffffffffffffffffffffffffffff169060200190929190803573ffffffffffffffffffffffffffffffffffffffff1690602001909291908035906020019092919050505061175c565b005b610659600480360360408110156105ac57600080fd5b8101908080359060200190929190803590602001906401000000008111156105d357600080fd5b8201836020820111156105e557600080fd5b8035906020019184600183028401116401000000008311171561060757600080fd5b91908080601f016020809104026020016040519081016040528093929190818152602001838380828437600081840152601f19601f82011690508083019250505050505050919291929050505061177f565b005b6106a76004803603604081101561067157600080fd5b81019080803573ffffffffffffffffffffffffffffffffffffffff169060200190929190803590602001909291905050506117c2565b6040518082815260200191505060405180910390f35b610709600480360360408110156106d357600080fd5b81019080803573ffffffffffffffffffffffffffffffffffffffff16906020019092919080359060200190929190505050611835565b604051808215151515815260200191505060405180910390f35b61087d6004803603606081101561073957600080fd5b81019080803590602001909291908035906020019064010000000081111561076057600080fd5b82018360208201111561077257600080fd5b8035906020019184600183028401116401000000008311171561079457600080fd5b91908080601f016020809104026020016040519081016040528093929190818152602001838380828437600081840152601f19601f820116905080830192505050505050509192919290803590602001906401000000008111156107f757600080fd5b82018360208201111561080957600080fd5b8035906020019184600183028401116401000000008311171561082b57600080fd5b91908080601f016020809104026020016040519081016040528093929190818152602001838380828437600081840152601f19601f820116905080830192505050505050509192919290505050611ce8565b005b6108cb6004803603604081101561089557600080fd5b81019080803573ffffffffffffffffffffffffffffffffffffffff16906020019092919080359060200190929190505050611ced565b604051808215151515815260200191505060405180910390f35b610951600480360360608110156108fb57600080fd5b81019080803573ffffffffffffffffffffffffffffffffffffffff169060200190929190803573ffffffffffffffffffffffffffffffffffffffff16906020019092919080359060200190929190505050611dce565b005b61097f6004803603602081101561096957600080fd5b8101908080359060200190929190505050611dee565b6040518082815260200191505060405180910390f35b610af460048036036101408110156109ac57600080fd5b8101908080604001906002806020026040519081016040528092919082600260200280828437600081840152601f19601f82011690508083019250505050505091929192908060800190600280602002604051908101604052809291906000905b82821015610a61578382604002016002806020026040519081016040528092919082600260200280828437600081840152601f19601f82011690508083019250505050505081526020019060010190610a0d565b50505050919291929080604001906002806020026040519081016040528092919082600260200280828437600081840152601f19601f820116905080830192505050505050919291929080604001906002806020026040519081016040528092919082600260200280828437600081840152601f19601f8201169050808301925050505050509192919290505050611e22565b604051808215151515815260200191505060405180910390f35b610b3a60048036036020811015610b2457600080fd5b810190808035906020019092919050505061201e565b604051808273ffffffffffffffffffffffffffffffffffffffff1673ffffffffffffffffffffffffffffffffffffffff16815260200191505060405180910390f35b610bbe60048036036020811015610b9257600080fd5b81019080803573ffffffffffffffffffffffffffffffffffffffff16906020019092919050505061205b565b6040518082815260200191505060405180910390f35b610bdc6120ab565b604051808273ffffffffffffffffffffffffffffffffffffffff1673ffffffffffffffffffffffffffffffffffffffff16815260200191505060405180910390f35b610c266120d4565b6040518080602001828103825283818151815260200191508051906020019080838360005b83811015610c66578082015181840152602081019050610c4b565b50505050905090810190601f168015610c935780820380516001836020036101000a031916815260200191505b509250505060405180910390f35b610cef60048036036040811015610cb757600080fd5b81019080803573ffffffffffffffffffffffffffffffffffffffff169060200190929190803515159060200190929190505050612176565b005b610df460048036036080811015610d0757600080fd5b81019080803573ffffffffffffffffffffffffffffffffffffffff169060200190929190803573ffffffffffffffffffffffffffffffffffffffff1690602001909291908035906020019092919080359060200190640100000000811115610d6e57600080fd5b820183602082011115610d8057600080fd5b80359060200191846001830284011164010000000083111715610da257600080fd5b91908080601f016020809104026020016040519081016040528093929190818152602001838380828437600081840152601f19601f8201169050808301925050505050505091929192905050506122b0565b005b610e2260048036036020811015610e0c57600080fd5b81019080803590602001909291905050506122d6565b6040518080602001828103825283818151815260200191508051906020019080838360005b83811015610e62578082015181840152602081019050610e47565b50505050905090810190601f168015610e8f5780820380516001836020036101000a031916815260200191505b509250505060405180910390f35b610ea561239d565b6040518080602001828103825283818151815260200191508051906020019080838360005b83811015610ee5578082015181840152602081019050610eca565b50505050905090810190601f168015610f125780820380516001836020036101000a031916815260200191505b509250505060405180910390f35b610f8260048036036040811015610f3657600080fd5b81019080803573ffffffffffffffffffffffffffffffffffffffff169060200190929190803573ffffffffffffffffffffffffffffffffffffffff16906020019092919050505061243f565b604051808215151515815260200191505060405180910390f35b610fde60048036036020811015610fb257600080fd5b81019080803573ffffffffffffffffffffffffffffffffffffffff1690602001909291905050506124d3565b005b600060016000837bffffffffffffffffffffffffffffffffffffffffffffffffffffffff19167bffffffffffffffffffffffffffffffffffffffffffffffffffffffff1916815260200190815260200160002060009054906101000a900460ff169050919050565b6060600f8054600181600116156101000203166002900480601f0160208091040260200160405190810160405280929190818152602001828054600181600116156101000203166002900480156110e05780601f106110b5576101008083540402835291602001916110e0565b820191906000526020600020905b8154815290600101906020018083116110c357829003601f168201915b5050505050905090565b60006003600083815260200190815260200160002060009054906101000a900473ffffffffffffffffffffffffffffffffffffffff169050919050565b8173ffffffffffffffffffffffffffffffffffffffff166111478261201e565b73ffffffffffffffffffffffffffffffffffffffff1614156111b4576040517f08c379a00000000000000000000000000000000000000000000000000000000081526004018080602001828103825260268152602001806147d96026913960400191505060405180910390fd5b6111be33826126e0565b611213576040517f08c379a000000000000000000000000000000000000000000000000000000000815260040180806020018281038252602b8152602001806147ff602b913960400191505060405180910390fd5b816003600083815260200190815260200160002060006101000a81548173ffffffffffffffffffffffffffffffffffffffff021916908373ffffffffffffffffffffffffffffffffffffffff160217905550808273ffffffffffffffffffffffffffffffffffffffff163373ffffffffffffffffffffffffffffffffffffffff167f8c5be1e5ebec7d5bd14f71427d1e84f3dd0314c0f7b2291e5b200ac8c7c3b92560405160405180910390a45050565b6000809054906101000a900473ffffffffffffffffffffffffffffffffffffffff1673ffffffffffffffffffffffffffffffffffffffff163373ffffffffffffffffffffffffffffffffffffffff1614611386576040517f08c379a000000000000000000000000000000000000000000000000000000000815260040180806020018281038252601c8152602001807f43616c6c6572206973206e6f7420636f6e7472616374206f776e65720000000081525060200191505060405180910390fd5b80600060146101000a81548160ff021916908315150217905550801561140e577f62e78cea01bee320cd4e420270b5ea74000d11b0c9f74754ebdbfc544b05a25833604051808273ffffffffffffffffffffffffffffffffffffffff1673ffffffffffffffffffffffffffffffffffffffff16815260200191505060405180910390a1611472565b7f5db9ee0a495bf2e6ff9c91a7834c1ba4fdd244a5e8aa4e537bd38aeae4b073aa33604051808273ffffffffffffffffffffffffffffffffffffffff1673ffffffffffffffffffffffffffffffffffffffff16815260200191505060405180910390a15b50565b6000600880549050905090565b6000808787878787876040516020018087600260200280838360005b838110156114b957808201518184015260208101905061149e565b505050509050018660026000925b8184101561150d5782846020020151600260200280838360005b838110156114fc5780820151818401526020810190506114e1565b5050505090500192600101926114c7565b9250505085600260200280838360005b8381101561153857808201518184015260208101905061151d565b5050505090500184600260200280838360005b8381101561156657808201518184015260208101905061154b565b505050509050018373ffffffffffffffffffffffffffffffffffffffff1673ffffffffffffffffffffffffffffffffffffffff1660601b815260140182815260200196505050505050506040516020818303038152906040528051906020012090506115d0614422565b6040518060e001604052808a81526020018981526020018881526020018781526020018673ffffffffffffffffffffffffffffffffffffffff1681526020018581526020018381525090508060146000868152602001908152602001600020600082015181600001906002611646929190614490565b5060208201518160020190600261165e9291906144d0565b50604082015181600601906002611676929190614490565b5060608201518160080190600261168e929190614490565b50608082015181600a0160006101000a81548173ffffffffffffffffffffffffffffffffffffffff021916908373ffffffffffffffffffffffffffffffffffffffff16021790555060a082015181600b015560c082015181600c01559050507f209e782baeeecf4956303cb3e836fdf3f7279e6729ebccf2d309c292aedd3aeb33604051808273ffffffffffffffffffffffffffffffffffffffff1673ffffffffffffffffffffffffffffffffffffffff16815260200191505060405180910390a150509695505050505050565b61176633826126e0565b61176f57600080fd5b61177a838383612775565b505050565b6117be828260006040519080825280601f01601f1916602001820160405280156117b85781602001600182028038833980820191505090505b50611ce8565b5050565b60006117cd8361205b565b82106117d857600080fd5b600660008473ffffffffffffffffffffffffffffffffffffffff1673ffffffffffffffffffffffffffffffffffffffff168152602001908152602001600020828154811061182257fe5b9060005260206000200154905092915050565b60008073ffffffffffffffffffffffffffffffffffffffff1660146000848152602001908152602001600020600a0160009054906101000a900473ffffffffffffffffffffffffffffffffffffffff1673ffffffffffffffffffffffffffffffffffffffff16141561190f576040517f08c379a00000000000000000000000000000000000000000000000000000000081526004018080602001828103825260178152602001807f536f6c7574696f6e20646f6573206e6f7420657869737400000000000000000081525060200191505060405180910390fd5b600080905061191c614422565b601460008581526020019081526020016000206040518060e001604052908160008201600280602002604051908101604052809291908260028015611976576020028201915b815481526020019060010190808311611962575b5050505050815260200160028201600280602002604051908101604052809291906000905b828210156119f4578382600202016002806020026040519081016040528092919082600280156119e0576020028201915b8154815260200190600101908083116119cc575b50505050508152602001906001019061199b565b50505050815260200160068201600280602002604051908101604052809291908260028015611a38576020028201915b815481526020019060010190808311611a24575b5050505050815260200160088201600280602002604051908101604052809291908260028015611a7d576020028201915b815481526020019060010190808311611a69575b50505050508152602001600a820160009054906101000a900473ffffffffffffffffffffffffffffffffffffffff1673ffffffffffffffffffffffffffffffffffffffff1673ffffffffffffffffffffffffffffffffffffffff168152602001600b8201548152602001600c8201548152505090506000601360009054906101000a900473ffffffffffffffffffffffffffffffffffffffff1673ffffffffffffffffffffffffffffffffffffffff1663621e9ec083600001518460200151856040015186606001516040518563ffffffff1660e01b81526004018085600260200280838360005b83811015611b80578082015181840152602081019050611b65565b505050509050018460026000925b81841015611bd45782846020020151600260200280838360005b83811015611bc3578082015181840152602081019050611ba8565b505050509050019260010192611b8e565b9250505083600260200280838360005b83811015611bff578082015181840152602081019050611be4565b5050505090500182600260200280838360005b83811015611c2d578082015181840152602081019050611c12565b5050505090500194505050505060206040518083038186803b158015611c5257600080fd5b505afa158015611c66573d6000803e3d6000fd5b505050506040513d6020811015611c7c57600080fd5b81019080805190602001909291905050509050600115158115151415611cdc576001601560008460c00151815260200190815260200160002060006101000a81548160ff021916908315150217905550611cd68686611ced565b50600192505b82935050505092915050565b505050565b60008060009054906101000a900473ffffffffffffffffffffffffffffffffffffffff1673ffffffffffffffffffffffffffffffffffffffff163373ffffffffffffffffffffffffffffffffffffffff1614611db1576040517f08c379a000000000000000000000000000000000000000000000000000000000815260040180806020018281038252601c8152602001807f43616c6c6572206973206e6f7420636f6e7472616374206f776e65720000000081525060200191505060405180910390fd5b611dbb8383612799565b611dc4826127ba565b6001905092915050565b611de9838383604051806020016040528060008152506122b0565b505050565b6000611df8611475565b8210611e0357600080fd5b60088281548110611e1057fe5b90600052602060002001549050919050565b6000611e2c614520565b604051806040016040528087600060028110611e4457fe5b6020020151815260200187600160028110611e5b57fe5b602002015181525081600001819052506040518060400160405280604051806040016040528088600060028110611e8e57fe5b6020020151600060028110611e9f57fe5b6020020151815260200188600060028110611eb657fe5b6020020151600160028110611ec757fe5b60200201518152508152602001604051806040016040528088600160028110611eec57fe5b6020020151600060028110611efd57fe5b6020020151815260200188600160028110611f1457fe5b6020020151600160028110611f2557fe5b60200201518152508152508160200181905250604051806040016040528085600060028110611f5057fe5b6020020151815260200185600160028110611f6757fe5b6020020151815250816040018190525060606002604051908082528060200260200182016040528015611fa95781602001602082028038833980820191505090505b50905060008090505b6002811015611ff157848160028110611fc757fe5b6020020151828281518110611fd857fe5b6020026020010181815250508080600101915050611fb2565b506000611ffe82846128a2565b141561200f57600192505050612016565b6000925050505b949350505050565b60006002600083815260200190815260200160002060009054906101000a900473ffffffffffffffffffffffffffffffffffffffff169050919050565b60006120a4600460008473ffffffffffffffffffffffffffffffffffffffff1673ffffffffffffffffffffffffffffffffffffffff168152602001908152602001600020612a14565b9050919050565b60008060009054906101000a900473ffffffffffffffffffffffffffffffffffffffff16905090565b606060108054600181600116156101000203166002900480601f01602080910402602001604051908101604052809291908181526020018280546001816001161561010002031660029004801561216c5780601f106121415761010080835404028352916020019161216c565b820191906000526020600020905b81548152906001019060200180831161214f57829003601f168201915b5050505050905090565b3373ffffffffffffffffffffffffffffffffffffffff168273ffffffffffffffffffffffffffffffffffffffff1614156121af57600080fd5b80600560003373ffffffffffffffffffffffffffffffffffffffff1673ffffffffffffffffffffffffffffffffffffffff16815260200190815260200160002060008473ffffffffffffffffffffffffffffffffffffffff1673ffffffffffffffffffffffffffffffffffffffff16815260200190815260200160002060006101000a81548160ff0219169083151502179055508173ffffffffffffffffffffffffffffffffffffffff163373ffffffffffffffffffffffffffffffffffffffff167f17307eab39ab6107e8899845ad3d59bd9653f200f220920489ca2b5937696c3183604051808215151515815260200191505060405180910390a35050565b6122bb84848461175c565b6122c784848484612a22565b6122d057600080fd5b50505050565b60606122e182612c0b565b6122ea57600080fd5b601260008381526020019081526020016000208054600181600116156101000203166002900480601f0160208091040260200160405190810160405280929190818152602001828054600181600116156101000203166002900480156123915780601f1061236657610100808354040283529160200191612391565b820191906000526020600020905b81548152906001019060200180831161237457829003601f168201915b50505050509050919050565b606060118054600181600116156101000203166002900480601f0160208091040260200160405190810160405280929190818152602001828054600181600116156101000203166002900480156124355780601f1061240a57610100808354040283529160200191612435565b820191906000526020600020905b81548152906001019060200180831161241857829003601f168201915b5050505050905090565b6000600560008473ffffffffffffffffffffffffffffffffffffffff1673ffffffffffffffffffffffffffffffffffffffff16815260200190815260200160002060008373ffffffffffffffffffffffffffffffffffffffff1673ffffffffffffffffffffffffffffffffffffffff16815260200190815260200160002060009054906101000a900460ff16905092915050565b6000809054906101000a900473ffffffffffffffffffffffffffffffffffffffff1673ffffffffffffffffffffffffffffffffffffffff163373ffffffffffffffffffffffffffffffffffffffff1614612595576040517f08c379a000000000000000000000000000000000000000000000000000000000815260040180806020018281038252601c8152602001807f43616c6c6572206973206e6f7420636f6e7472616374206f776e65720000000081525060200191505060405180910390fd5b80600073ffffffffffffffffffffffffffffffffffffffff168173ffffffffffffffffffffffffffffffffffffffff161415612639576040517f08c379a000000000000000000000000000000000000000000000000000000000815260040180806020018281038252601e8152602001807f41646472657373206973206e6f7420612076616c69642061646472657373000081525060200191505060405180910390fd5b816000806101000a81548173ffffffffffffffffffffffffffffffffffffffff021916908373ffffffffffffffffffffffffffffffffffffffff1602179055507fa2ea9883a321a3e97b8266c2b078bfeec6d50c711ed71f874a90d500ae2eaf3682604051808273ffffffffffffffffffffffffffffffffffffffff1673ffffffffffffffffffffffffffffffffffffffff16815260200191505060405180910390a15050565b6000806126ec8361201e565b90508073ffffffffffffffffffffffffffffffffffffffff168473ffffffffffffffffffffffffffffffffffffffff16148061275b57508373ffffffffffffffffffffffffffffffffffffffff16612743846110ea565b73ffffffffffffffffffffffffffffffffffffffff16145b8061276c575061276b818561243f565b5b91505092915050565b612780838383612c7d565b61278a8382612ef7565b6127948282613095565b505050565b6127a3828261315c565b6127ad8282613095565b6127b681613376565b5050565b6127c381612c0b565b6127cc57600080fd5b61287860118054600181600116156101000203166002900480601f0160208091040260200160405190810160405280929190818152602001828054600181600116156101000203166002900480156128655780601f1061283a57610100808354040283529160200191612865565b820191906000526020600020905b81548152906001019060200180831161284857829003601f168201915b5050505050612873836133c2565b6134ef565b60126000838152602001908152602001600020908051906020019061289e929190614553565b5050565b6000807f30644e72e131a029b85045b68181585d2833e84879b9709143e1f593f000000190506128d06145d3565b6128d8613533565b90508060800151516001865101146128ef57600080fd5b6128f761461a565b6040518060400160405280600081526020016000815250905060008090505b865181101561298d578387828151811061292c57fe5b60200260200101511061293e57600080fd5b61297e826129798560800151600185018151811061295857fe5b60200260200101518a858151811061296c57fe5b6020026020010151613980565b613a12565b91508080600101915050612916565b506129b08183608001516000815181106129a357fe5b6020026020010151613a12565b90506129f6856000015186602001516129c884613ac3565b85604001516129da8a60400151613ac3565b87606001516129ec8960000151613ac3565b8960200151613b5d565b612a065760019350505050612a0e565b600093505050505b92915050565b600081600001549050919050565b6000612a438473ffffffffffffffffffffffffffffffffffffffff16613cc1565b612a505760019050612c03565b60008473ffffffffffffffffffffffffffffffffffffffff1663150b7a02338887876040518563ffffffff1660e01b8152600401808573ffffffffffffffffffffffffffffffffffffffff1673ffffffffffffffffffffffffffffffffffffffff1681526020018473ffffffffffffffffffffffffffffffffffffffff1673ffffffffffffffffffffffffffffffffffffffff16815260200183815260200180602001828103825283818151815260200191508051906020019080838360005b83811015612b2b578082015181840152602081019050612b10565b50505050905090810190601f168015612b585780820380516001836020036101000a031916815260200191505b5095505050505050602060405180830381600087803b158015612b7a57600080fd5b505af1158015612b8e573d6000803e3d6000fd5b505050506040513d6020811015612ba457600080fd5b8101908080519060200190929190505050905063150b7a0260e01b7bffffffffffffffffffffffffffffffffffffffffffffffffffffffff1916817bffffffffffffffffffffffffffffffffffffffffffffffffffffffff1916149150505b949350505050565b6000806002600084815260200190815260200160002060009054906101000a900473ffffffffffffffffffffffffffffffffffffffff169050600073ffffffffffffffffffffffffffffffffffffffff168173ffffffffffffffffffffffffffffffffffffffff161415915050919050565b81600073ffffffffffffffffffffffffffffffffffffffff168173ffffffffffffffffffffffffffffffffffffffff161415612d21576040517f08c379a000000000000000000000000000000000000000000000000000000000815260040180806020018281038252601e8152602001807f41646472657373206973206e6f7420612076616c69642061646472657373000081525060200191505060405180910390fd5b8373ffffffffffffffffffffffffffffffffffffffff16612d418361201e565b73ffffffffffffffffffffffffffffffffffffffff1614612dad576040517f08c379a00000000000000000000000000000000000000000000000000000000081526004018080602001828103825260248152602001806147b56024913960400191505060405180910390fd5b612db682613d0c565b612dfd600460008673ffffffffffffffffffffffffffffffffffffffff1673ffffffffffffffffffffffffffffffffffffffff168152602001908152602001600020613dca565b612e44600460008573ffffffffffffffffffffffffffffffffffffffff1673ffffffffffffffffffffffffffffffffffffffff168152602001908152602001600020613ded565b826002600084815260200190815260200160002060006101000a81548173ffffffffffffffffffffffffffffffffffffffff021916908373ffffffffffffffffffffffffffffffffffffffff160217905550818373ffffffffffffffffffffffffffffffffffffffff168573ffffffffffffffffffffffffffffffffffffffff167fddf252ad1be2c89b69c2b068fc378daa952ba7f163c4a11628f55a4df523b3ef60405160405180910390a450505050565b6000612f4f6001600660008673ffffffffffffffffffffffffffffffffffffffff1673ffffffffffffffffffffffffffffffffffffffff16815260200190815260200160002080549050613e0390919063ffffffff16565b905060006007600084815260200190815260200160002054905081811461303c576000600660008673ffffffffffffffffffffffffffffffffffffffff1673ffffffffffffffffffffffffffffffffffffffff1681526020019081526020016000208381548110612fbc57fe5b9060005260206000200154905080600660008773ffffffffffffffffffffffffffffffffffffffff1673ffffffffffffffffffffffffffffffffffffffff168152602001908152602001600020838154811061301457fe5b9060005260206000200181905550816007600083815260200190815260200160002081905550505b600660008573ffffffffffffffffffffffffffffffffffffffff1673ffffffffffffffffffffffffffffffffffffffff16815260200190815260200160002080548091906001900361308e9190614634565b5050505050565b600660008373ffffffffffffffffffffffffffffffffffffffff1673ffffffffffffffffffffffffffffffffffffffff168152602001908152602001600020805490506007600083815260200190815260200160002081905550600660008373ffffffffffffffffffffffffffffffffffffffff1673ffffffffffffffffffffffffffffffffffffffff1681526020019081526020016000208190806001815401808255809150509060018203906000526020600020016000909192909190915055505050565b81600073ffffffffffffffffffffffffffffffffffffffff168173ffffffffffffffffffffffffffffffffffffffff161415613200576040517f08c379a000000000000000000000000000000000000000000000000000000000815260040180806020018281038252601e8152602001807f41646472657373206973206e6f7420612076616c69642061646472657373000081525060200191505060405180910390fd5b61320982612c0b565b1561327c576040517f08c379a00000000000000000000000000000000000000000000000000000000081526004018080602001828103825260178152602001807f546f6b656e20494420616c72656164792065786973747300000000000000000081525060200191505060405180910390fd5b826002600084815260200190815260200160002060006101000a81548173ffffffffffffffffffffffffffffffffffffffff021916908373ffffffffffffffffffffffffffffffffffffffff160217905550613315600460008573ffffffffffffffffffffffffffffffffffffffff1673ffffffffffffffffffffffffffffffffffffffff168152602001908152602001600020613ded565b818373ffffffffffffffffffffffffffffffffffffffff16600073ffffffffffffffffffffffffffffffffffffffff167fddf252ad1be2c89b69c2b068fc378daa952ba7f163c4a11628f55a4df523b3ef60405160405180910390a4505050565b6008805490506009600083815260200190815260200160002081905550600881908060018154018082558091505090600182039060005260206000200160009091929091909150555050565b6060600082141561340a576040518060400160405280600181526020017f300000000000000000000000000000000000000000000000000000000000000081525090506134ea565b600082905060005b60008214613434578080600101915050600a828161342c57fe5b049150613412565b6060816040519080825280601f01601f1916602001820160405280156134695781602001600182028038833980820191505090505b50905060006001830390505b600086146134e257600a868161348757fe5b0660300160f81b828280600190039350815181106134a157fe5b60200101907effffffffffffffffffffffffffffffffffffffffffffffffffffffffffffff1916908160001a905350600a86816134da57fe5b049550613475565b819450505050505b919050565b606061352b8383604051806020016040528060008152506040518060200160405280600081525060405180602001604052806000815250613e4d565b905092915050565b61353b6145d3565b60405180604001604052807f1936c240636390dc823e3a728e94b208eb53c6756d81da57ec3425e05d43ac1081526020017f2d70ff78e8216bf29d58923a686d9738278b8ce2fd822e197c85b09286d155668152508160000181905250604051806040016040528060405180604001604052807f29c13ecb6f33dbc4b3b8a02e2e255511ce4c26a8a2f299efcc94caf2de4fce0081526020017f2b4daf047abe2e7f0b311118c1b963b63695dc0d769cea78849604434de055bf815250815260200160405180604001604052807f25ea0d7e2b29de431b86a943db30dbf4d98f68df9ca8a9628d14d1591e817d9081526020017f1da9020008df7f549751f8a251af3b2dc4a2ad3e0870de54acaedd9fc1b47e178152508152508160200181905250604051806040016040528060405180604001604052807ee83c788c2878d1d5eba3ed49b0d81e4c0487dedc3e4d1c2baab5833785b62f81526020017f011016e22ae045444f50fb80f246ec486c7e02af09132cd38c4fcf484983e4f2815250815260200160405180604001604052807f132a90a3b0d369ccd66e2a5ba04a935e44d8ad5dca93a76bba592a578130a91181526020017f05eb89e741ed5b5d611cebf92d1ed02cd6f3311089f0d400df7d9ced5a48fd418152508152508160400181905250604051806040016040528060405180604001604052807f0c3b60f59d3bd50328a04c0ff6d979199685d0526f89f6ac29d6174ce24707a281526020017f065f6a3323a2abffd621fc263f348eb914904b68d5897729ae34a6b9d33f0852815250815260200160405180604001604052807f12e0f3721230a0f38f6c9913048d5230fd2615ef3ff7f6ee4b20dfe0bdea1a8681526020017f26e7ebce2b44efef6b6315938e33f0a8ecc82dbad635c9efa681ed85bbb599828152508152508160600181905250600360405190808252806020026020018201604052801561382157816020015b61380e614660565b8152602001906001900390816138065790505b50816080018190525060405180604001604052807f1ef8d5d70234aa3e3d8fc4e3f1ca01c703182580b581106798f05b35fd5082c081526020017f2e468046d4ae35138e2032224925d5389712e5ca5e68f4d9c1e1858e7d65602d815250816080015160008151811061389057fe5b602002602001018190525060405180604001604052807f0cefae0e3fa6aa25a4485ab7b21d32794d3431a4e4a5ca82ea427b831534c2c981526020017f23e3d2035b70884e547638b111870f5957f58ad8068f7a21470164ad361e1e88815250816080015160018151811061390157fe5b602002602001018190525060405180604001604052807f030ffe78ec3de150e8688db619bde78e21e894754e6be5ed83742677628b24bc81526020017f053392f88cfa9092dfbc0bd199d8159e56207779473c24fc601eff91bcd345ca815250816080015160028151811061397257fe5b602002602001018190525090565b61398861461a565b61399061467a565b8360000151816000600381106139a257fe5b6020020181815250508360200151816001600381106139bd57fe5b60200201818152505082816002600381106139d457fe5b602002018181525050600060608360808460076107d05a03fa905080600081146139fd576139ff565bfe5b5080613a0a57600080fd5b505092915050565b613a1a61461a565b613a2261469c565b836000015181600060048110613a3457fe5b602002018181525050836020015181600160048110613a4f57fe5b602002018181525050826000015181600260048110613a6a57fe5b602002018181525050826020015181600360048110613a8557fe5b602002018181525050600060608360c08460066107d05a03fa90508060008114613aae57613ab0565bfe5b5080613abb57600080fd5b505092915050565b613acb61461a565b60007f30644e72e131a029b85045b68181585d97816a916871ca8d3c208c16d87cfd47905060008360000151148015613b08575060008360200151145b15613b2c576040518060400160405280600081526020016000815250915050613b58565b60405180604001604052808460000151815260200182856020015181613b4e57fe5b0683038152509150505b919050565b600060606004604051908082528060200260200182016040528015613b9c57816020015b613b89614660565b815260200190600190039081613b815790505b50905060606004604051908082528060200260200182016040528015613bdc57816020015b613bc96146be565b815260200190600190039081613bc15790505b5090508a82600081518110613bed57fe5b60200260200101819052508882600181518110613c0657fe5b60200260200101819052508682600281518110613c1f57fe5b60200260200101819052508482600381518110613c3857fe5b60200260200101819052508981600081518110613c5157fe5b60200260200101819052508781600181518110613c6a57fe5b60200260200101819052508581600281518110613c8357fe5b60200260200101819052508381600381518110613c9c57fe5b6020026020010181905250613cb1828261410f565b9250505098975050505050505050565b60008060007fc5d2460186f7233c927e7db2dcc703c0e500b653ca82273b7bfad8045d85a47060001b9050833f9150808214158015613d0357506000801b8214155b92505050919050565b600073ffffffffffffffffffffffffffffffffffffffff166003600083815260200190815260200160002060009054906101000a900473ffffffffffffffffffffffffffffffffffffffff1673ffffffffffffffffffffffffffffffffffffffff1614613dc75760006003600083815260200190815260200160002060006101000a81548173ffffffffffffffffffffffffffffffffffffffff021916908373ffffffffffffffffffffffffffffffffffffffff1602179055505b50565b613de260018260000154613e0390919063ffffffff16565b816000018190555050565b6001816000016000828254019250508190555050565b6000613e4583836040518060400160405280601e81526020017f536166654d6174683a207375627472616374696f6e206f766572666c6f770000815250614362565b905092915050565b6060808690506060869050606086905060608690506060869050606081518351855187518951010101016040519080825280601f01601f191660200182016040528015613ea95781602001600182028038833980820191505090505b509050606081905060008090506000809050600090505b8851811015613f2e57888181518110613ed557fe5b602001015160f81c60f81b838380600101945081518110613ef257fe5b60200101907effffffffffffffffffffffffffffffffffffffffffffffffffffffffffffff1916908160001a9053508080600101915050613ec0565b600090505b8751811015613fa157878181518110613f4857fe5b602001015160f81c60f81b838380600101945081518110613f6557fe5b60200101907effffffffffffffffffffffffffffffffffffffffffffffffffffffffffffff1916908160001a9053508080600101915050613f33565b600090505b865181101561401457868181518110613fbb57fe5b602001015160f81c60f81b838380600101945081518110613fd857fe5b60200101907effffffffffffffffffffffffffffffffffffffffffffffffffffffffffffff1916908160001a9053508080600101915050613fa6565b600090505b85518110156140875785818151811061402e57fe5b602001015160f81c60f81b83838060010194508151811061404b57fe5b60200101907effffffffffffffffffffffffffffffffffffffffffffffffffffffffffffff1916908160001a9053508080600101915050614019565b600090505b84518110156140fa578481815181106140a157fe5b602001015160f81c60f81b8383806001019450815181106140be57fe5b60200101907effffffffffffffffffffffffffffffffffffffffffffffffffffffffffffff1916908160001a905350808060010191505061408c565b82995050505050505050505095945050505050565b6000815183511461411f57600080fd5b600083519050600060068202905060608160405190808252806020026020018201604052801561415e5781602001602082028038833980820191505090505b50905060008090505b838110156143045786818151811061417b57fe5b60200260200101516000015182600060068402018151811061419957fe5b6020026020010181815250508681815181106141b157fe5b6020026020010151602001518260016006840201815181106141cf57fe5b6020026020010181815250508581815181106141e757fe5b6020026020010151600001516001600281106141ff57fe5b602002015182600260068402018151811061421657fe5b60200260200101818152505085818151811061422e57fe5b60200260200101516000015160006002811061424657fe5b602002015182600360068402018151811061425d57fe5b60200260200101818152505085818151811061427557fe5b60200260200101516020015160016002811061428d57fe5b60200201518260046006840201815181106142a457fe5b6020026020010181815250508581815181106142bc57fe5b6020026020010151602001516000600281106142d457fe5b60200201518260056006840201815181106142eb57fe5b6020026020010181815250508080600101915050614167565b5061430d6146e4565b6000602082602086026020860160086107d05a03fa9050806000811461433257614334565bfe5b508061433f57600080fd5b60008260006001811061434e57fe5b602002015114159550505050505092915050565b600083831115829061440f576040517f08c379a00000000000000000000000000000000000000000000000000000000081526004018080602001828103825283818151815260200191508051906020019080838360005b838110156143d45780820151818401526020810190506143b9565b50505050905090810190601f1680156144015780820380516001836020036101000a031916815260200191505b509250505060405180910390fd5b5060008385039050809150509392505050565b6040518060e00160405280614435614706565b8152602001614442614728565b815260200161444f614706565b815260200161445c614706565b8152602001600073ffffffffffffffffffffffffffffffffffffffff16815260200160008152602001600080191681525090565b82600281019282156144bf579160200282015b828111156144be5782518255916020019190600101906144a3565b5b5090506144cc9190614755565b5090565b8260028002810192821561450f579160200282015b8281111561450e578251829060026144fe929190614490565b50916020019190600201906144e5565b5b50905061451c919061477a565b5090565b6040518060600160405280614533614660565b81526020016145406146be565b815260200161454d614660565b81525090565b828054600181600116156101000203166002900490600052602060002090601f016020900481019282601f1061459457805160ff19168380011785556145c2565b828001600101855582156145c2579182015b828111156145c15782518255916020019190600101906145a6565b5b5090506145cf9190614755565b5090565b6040518060a001604052806145e6614660565b81526020016145f36146be565b81526020016146006146be565b815260200161460d6146be565b8152602001606081525090565b604051806040016040528060008152602001600081525090565b81548183558181111561465b5781836000526020600020918201910161465a9190614755565b5b505050565b604051806040016040528060008152602001600081525090565b6040518060600160405280600390602082028038833980820191505090505090565b6040518060800160405280600490602082028038833980820191505090505090565b60405180604001604052806146d1614706565b81526020016146de614706565b81525090565b6040518060200160405280600190602082028038833980820191505090505090565b6040518060400160405280600290602082028038833980820191505090505090565b60405180604001604052806002905b61473f614706565b8152602001906001900390816147375790505090565b61477791905b8082111561477357600081600090555060010161475b565b5090565b90565b6147a391905b8082111561479f576000818161479691906147a6565b50600201614780565b5090565b90565b50600081556001016000905556fe46726f6d2061646472657373206d7573742062652074686520746f6b656e206f776e657243757272656e7420746f6b656e206f776e65722063616e6e6f7420626520617070726f766564417070726f766572206d75737420626520617070726f766564206f72206f776e6572206f6620746f6b656ea265627a7a723158208b55ea33a69edaf4931c85e27692679d6bf4ed04b27d6791e0beab9d5e93248464736f6c6343000510003268747470733a2f2f73332d75732d776573742d322e616d617a6f6e6177732e636f6d2f756461636974792d626c6f636b636861696e2f63617073746f6e652f",
  "source": "pragma solidity >= 0.5.0;\nimport './ERC721Mintable.sol';\nimport './Verifier.sol';\n\n// TODO define another contract named SolnSquareVerifier that inherits from your ERC721Mintable class\ncontract SolnSquareVerifier is Verifier, ERC721Mintable {\n    Verifier verifierContract;\n    // TODO define a solutions struct that can hold an index & an address\n    struct Solution {\n        uint[2] a;\n        uint[2][2] b;\n        uint[2] c;\n        uint[2] input;\n        address solutionAddress;\n        uint256 tokenId;\n        bytes32 key;\n    }\n\n    // TODO define an array of the above struct\n    mapping(uint256 => Solution) solutions;\n\n    // TODO define a mapping to store unique solutions submitted\n    mapping(bytes32 => bool) solutionsSubmitted;\n\n    constructor(address verifierAddress) ERC721Mintable() public {\n        verifierContract = Verifier(verifierAddress);\n    }\n\n    // TODO Create an event to emit when a solution is added\n    event SolutionAdded(address solutionAddress);\n\n    // TODO Create a function to add the solutions to the array and emit the event\n    function addSolution(uint[2] memory a, uint[2][2] memory b, uint[2] memory c, uint[2] memory input, address solutionAddress, uint256 tokenId) public returns (bool) {\n        bytes32 key = keccak256(abi.encodePacked(a, b, c, input, solutionAddress, tokenId));\n        Solution memory currentSolution = Solution(a, b, c, input, solutionAddress, tokenId, key);\n        solutions[tokenId] = currentSolution;\n        emit SolutionAdded(msg.sender);\n    }\n\n    // TODO Create a function to mint new NFT only after the solution has been verified\n    //  - make sure the solution is unique (has not been used before)\n    //  - make sure you handle metadata as well as tokenSupply\n    function verifiedMint(address solutionAddress, uint256 tokenId) public returns (bool) {\n        require(solutions[tokenId].solutionAddress != address(0), \"Solution does not exist\");\n        bool verificationResult = false;\n        Solution memory currentSolution = solutions[tokenId];\n        bool verification = verifierContract.verifyTx(currentSolution.a, currentSolution.b, currentSolution.c, currentSolution.input);\n        if (verification == true) {\n            solutionsSubmitted[currentSolution.key] = true;\n            super.mint(solutionAddress, tokenId);\n            verificationResult = true;\n        }\n        return verificationResult;\n    }\n}\n",
  "sourcePath": "/Users/derekzak/Code/Udacity/capstone/eth-contracts/contracts/SolnSquareVerifier.sol",
  "compiler": {
    "name": "solc",
    "version": "0.5.16+commit.9c3226ce.Emscripten.clang"
  },
  "schemaVersion": "3.3.2",
  "updatedAt": "2021-03-02T22:21:13.604Z",
  "networkType": "ethereum",
  "devdoc": {
    "methods": {
      "isApprovedForAll(address,address)": {
        "details": "Tells whether an operator is approved by a given owner",
        "params": {
          "operator": "operator address which you want to query the approval of",
          "owner": "owner address which you want to query the approval of"
        },
        "return": "bool whether the given operator is approved by the given owner"
      },
      "setApprovalForAll(address,bool)": {
        "details": "Sets or unsets the approval of a given operator An operator is allowed to transfer all tokens of the sender on their behalf",
        "params": {
          "approved": "representing the status of the approval to be set",
          "to": "operator address to set the approval"
        }
      },
      "supportsInterface(bytes4)": {
        "details": "implement supportsInterface(bytes4) using a lookup table"
      },
      "tokenByIndex(uint256)": {
        "details": "Gets the token ID at a given index of all the tokens in this contract Reverts if the index is greater or equal to the total number of tokens",
        "params": {
          "index": "uint256 representing the index to be accessed of the tokens list"
        },
        "return": "uint256 token ID at the given index of the tokens list"
      },
      "tokenOfOwnerByIndex(address,uint256)": {
        "details": "Gets the token ID at a given index of the tokens list of the requested owner",
        "params": {
          "index": "uint256 representing the index to be accessed of the requested tokens list",
          "owner": "address owning the tokens list to be accessed"
        },
        "return": "uint256 token ID at the given index of the tokens list owned by the requested address"
      },
      "totalSupply()": {
        "details": "Gets the total amount of tokens stored by the contract",
        "return": "uint256 representing the total amount of tokens"
      }
    }
  },
  "userdoc": {
    "methods": {}
  }
}